{
  "contractName": "BombChairGame",
  "abi": [
    {
      "inputs": [],
      "stateMutability": "nonpayable",
      "type": "constructor"
    },
    {
      "anonymous": false,
      "inputs": [
        {
          "indexed": false,
          "internalType": "uint256",
          "name": "numeroEscolhido",
          "type": "uint256"
        },
        {
          "indexed": false,
          "internalType": "address",
          "name": "jogador",
          "type": "address"
        }
      ],
      "name": "NovaInstanciaJogo",
      "type": "event"
    },
    {
      "anonymous": false,
      "inputs": [
        {
          "indexed": true,
          "internalType": "uint256",
          "name": "numeroContrato",
          "type": "uint256"
        },
        {
          "indexed": true,
          "internalType": "uint256",
          "name": "numeroEscolhido",
          "type": "uint256"
        },
        {
          "indexed": true,
          "internalType": "address",
          "name": "ganhador",
          "type": "address"
        }
      ],
      "name": "VencedorAnunciado",
      "type": "event"
    },
    {
      "anonymous": false,
      "inputs": [
        {
          "indexed": false,
          "internalType": "address",
          "name": "jogador",
          "type": "address"
        },
        {
          "indexed": false,
          "internalType": "uint256",
          "name": "numeroEscolhido",
          "type": "uint256"
        }
      ],
      "name": "numeroEscolhidoRegistrado",
      "type": "event"
    },
    {
      "inputs": [],
      "name": "contador",
      "outputs": [
        {
          "internalType": "uint8",
          "name": "",
          "type": "uint8"
        }
      ],
      "stateMutability": "view",
      "type": "function",
      "constant": true
    },
    {
      "inputs": [
        {
          "internalType": "uint256",
          "name": "",
          "type": "uint256"
        }
      ],
      "name": "jaEscolhido",
      "outputs": [
        {
          "internalType": "address",
          "name": "s_jogador",
          "type": "address"
        },
        {
          "internalType": "uint256",
          "name": "numeroEscolhido",
          "type": "uint256"
        },
        {
          "internalType": "bool",
          "name": "valid",
          "type": "bool"
        }
      ],
      "stateMutability": "view",
      "type": "function",
      "constant": true
    },
    {
      "inputs": [
        {
          "internalType": "address",
          "name": "",
          "type": "address"
        }
      ],
      "name": "jogadorIniciouJogo",
      "outputs": [
        {
          "internalType": "bool",
          "name": "",
          "type": "bool"
        }
      ],
      "stateMutability": "view",
      "type": "function",
      "constant": true
    },
    {
      "inputs": [
        {
          "internalType": "uint256",
          "name": "",
          "type": "uint256"
        }
      ],
      "name": "jogadorPorNumero",
      "outputs": [
        {
          "internalType": "address",
          "name": "",
          "type": "address"
        }
      ],
      "stateMutability": "view",
      "type": "function",
      "constant": true
    },
    {
      "inputs": [
        {
          "internalType": "uint256",
          "name": "",
          "type": "uint256"
        }
      ],
      "name": "jogoContracts",
      "outputs": [
        {
          "internalType": "address",
          "name": "",
          "type": "address"
        }
      ],
      "stateMutability": "view",
      "type": "function",
      "constant": true
    },
    {
      "inputs": [
        {
          "internalType": "uint256",
          "name": "",
          "type": "uint256"
        }
      ],
      "name": "jogos",
      "outputs": [
        {
          "internalType": "address",
          "name": "s_jogador",
          "type": "address"
        },
        {
          "internalType": "uint256",
          "name": "numeroEscolhido",
          "type": "uint256"
        },
        {
          "internalType": "uint256",
          "name": "valorSala",
          "type": "uint256"
        },
        {
          "internalType": "uint256",
          "name": "balance",
          "type": "uint256"
        },
        {
          "internalType": "bool",
          "name": "active",
          "type": "bool"
        }
      ],
      "stateMutability": "view",
      "type": "function",
      "constant": true
    },
    {
      "inputs": [],
      "name": "numeroContrato",
      "outputs": [
        {
          "internalType": "uint256",
          "name": "",
          "type": "uint256"
        }
      ],
      "stateMutability": "view",
      "type": "function",
      "constant": true
    },
    {
      "inputs": [
        {
          "internalType": "address",
          "name": "",
          "type": "address"
        }
      ],
      "name": "numeroEscolhido1",
      "outputs": [
        {
          "internalType": "address",
          "name": "s_jogador",
          "type": "address"
        },
        {
          "internalType": "uint256",
          "name": "numeroEscolhido",
          "type": "uint256"
        },
        {
          "internalType": "bool",
          "name": "valid",
          "type": "bool"
        }
      ],
      "stateMutability": "view",
      "type": "function",
      "constant": true
    },
    {
      "inputs": [],
      "name": "owner",
      "outputs": [
        {
          "internalType": "address",
          "name": "",
          "type": "address"
        }
      ],
      "stateMutability": "view",
      "type": "function",
      "constant": true
    },
    {
      "inputs": [],
      "name": "preco_jogo",
      "outputs": [
        {
          "internalType": "uint256",
          "name": "",
          "type": "uint256"
        }
      ],
      "stateMutability": "view",
      "type": "function",
      "constant": true
    },
    {
      "inputs": [
        {
          "internalType": "uint256",
          "name": "",
          "type": "uint256"
        }
      ],
      "name": "s_jogador",
      "outputs": [
        {
          "internalType": "address payable",
          "name": "",
          "type": "address"
        }
      ],
      "stateMutability": "view",
      "type": "function",
      "constant": true
    },
    {
      "inputs": [
        {
          "internalType": "uint256",
          "name": "",
          "type": "uint256"
        }
      ],
      "name": "sorteios",
      "outputs": [
        {
          "internalType": "address",
          "name": "s_jogador",
          "type": "address"
        },
        {
          "internalType": "uint256",
          "name": "numeroEscolhido",
          "type": "uint256"
        },
        {
          "internalType": "bool",
          "name": "valid",
          "type": "bool"
        }
      ],
      "stateMutability": "view",
      "type": "function",
      "constant": true
    },
    {
      "inputs": [],
      "name": "ultimoNumeroSorteado",
      "outputs": [
        {
          "internalType": "uint256",
          "name": "",
          "type": "uint256"
        }
      ],
      "stateMutability": "view",
      "type": "function",
      "constant": true
    },
    {
      "inputs": [],
      "name": "ultimoVencedor",
      "outputs": [
        {
          "internalType": "address",
          "name": "",
          "type": "address"
        }
      ],
      "stateMutability": "view",
      "type": "function",
      "constant": true
    },
    {
      "inputs": [
        {
          "internalType": "uint256",
          "name": "chosenNumber",
          "type": "uint256"
        }
      ],
      "name": "criarNovaInstanciaJogo",
      "outputs": [],
      "stateMutability": "payable",
      "type": "function",
      "payable": true
    },
    {
      "inputs": [
        {
          "internalType": "uint256",
          "name": "_numeroEscolhido",
          "type": "uint256"
        }
      ],
      "name": "jogar",
      "outputs": [],
      "stateMutability": "payable",
      "type": "function",
      "payable": true
    },
    {
      "inputs": [],
      "name": "Fora",
      "outputs": [
        {
          "internalType": "uint256[]",
          "name": "",
          "type": "uint256[]"
        }
      ],
      "stateMutability": "view",
      "type": "function",
      "constant": true
    },
    {
      "inputs": [],
      "name": "getBalance",
      "outputs": [
        {
          "internalType": "uint256",
          "name": "",
          "type": "uint256"
        }
      ],
      "stateMutability": "view",
      "type": "function",
      "constant": true
    },
    {
      "inputs": [],
      "name": "ultimoSorteio",
      "outputs": [
        {
          "internalType": "uint256",
          "name": "",
          "type": "uint256"
        },
        {
          "internalType": "address",
          "name": "",
          "type": "address"
        },
        {
          "internalType": "uint256",
          "name": "",
          "type": "uint256"
        },
        {
          "internalType": "uint8",
          "name": "",
          "type": "uint8"
        }
      ],
      "stateMutability": "view",
      "type": "function",
      "constant": true
    }
  ],
  "bytecode": "0x6080604052670de0b6b3a76400006001556002805460ff19169055600060035534801561002b57600080fd5b50600080546001600160a01b0319167380d639e9a17e2863fdad9d2dcb58e886b3564bcf1790556110f1806100616000396000f3fe6080604052600436106101145760003560e01c80638b826a07116100a0578063d377e04d11610064578063d377e04d146103fd578063d591080314610413578063d6cec6d514610449578063df6a1e3a14610492578063e4b7fce1146104b257600080fd5b80638b826a07146102da5780638b918f15146102f05780638da5cb5b14610312578063961b691714610332578063ab1371f3146103bd57600080fd5b806324d274b3116100e757806324d274b31461019b5780634359a8151461020b57806353d27cc2146102545780636f1618e214610280578063887e562f1461029657600080fd5b80631200208c1461011957806312065fe01461012e57806314c5ccf0146101505780631657845614610163575b600080fd5b61012c610127366004610f49565b6104e8565b005b34801561013a57600080fd5b50475b6040519081526020015b60405180910390f35b61012c61015e366004610f49565b61087d565b34801561016f57600080fd5b50600554610183906001600160a01b031681565b6040516001600160a01b039091168152602001610147565b3480156101a757600080fd5b506101e46101b6366004610f49565b6009602052600090815260409020805460018201546002909201546001600160a01b03909116919060ff1683565b604080516001600160a01b0390941684526020840192909252151590820152606001610147565b34801561021757600080fd5b506101e4610226366004610f62565b600d602052600090815260409020805460018201546002909201546001600160a01b03909116919060ff1683565b34801561026057600080fd5b5060025461026e9060ff1681565b60405160ff9091168152602001610147565b34801561028c57600080fd5b5061013d60045481565b3480156102a257600080fd5b50600454600554600354600254604080519485526001600160a01b0390931660208501529183015260ff166060820152608001610147565b3480156102e657600080fd5b5061013d60015481565b3480156102fc57600080fd5b50610305610b4b565b6040516101479190610f92565b34801561031e57600080fd5b50600054610183906001600160a01b031681565b34801561033e57600080fd5b5061038961034d366004610f49565b600a60205260009081526040902080546001820154600283015460038401546004909401546001600160a01b0390931693919290919060ff1685565b604080516001600160a01b03909616865260208601949094529284019190915260608301521515608082015260a001610147565b3480156103c957600080fd5b506103ed6103d8366004610f62565b60106020526000908152604090205460ff1681565b6040519015158152602001610147565b34801561040957600080fd5b5061013d60035481565b34801561041f57600080fd5b5061018361042e366004610f49565b600c602052600090815260409020546001600160a01b031681565b34801561045557600080fd5b506101e4610464366004610f49565b600e602052600090815260409020805460018201546002909201546001600160a01b03909116919060ff1683565b34801561049e57600080fd5b506101836104ad366004610f49565b610ba3565b3480156104be57600080fd5b506101836104cd366004610f49565b600b602052600090815260409020546001600160a01b031681565b6000546001600160a01b031633036105435760405162461bcd60e51b8152602060048201526019602482015278446f6e6f20646f20636f6e747261746f206e616f206a6f676160381b60448201526064015b60405180910390fd5b336000908152600f602052604090205460ff16156105955760405162461bcd60e51b815260206004820152600f60248201526e5663206a612070617274696369706160881b604482015260640161053a565b60015434146105d95760405162461bcd60e51b815260206004820152601060248201526f3b30b637b910323290189032ba3432b960811b604482015260640161053a565b600181101580156105eb575060068111155b6106305760405162461bcd60e51b81526020600482015260166024820152754573636f6c686120656e74726520312065203621212160501b604482015260640161053a565b60025460ff166006036106755760405162461bcd60e51b815260206004820152600d60248201526c53616c6120636865696121212160981b604482015260640161053a565b3360009081526010602052604090205460ff16156106d55760405162461bcd60e51b815260206004820152601860248201527f566f6365206a6120696e6963696f7520756d206a6f676f2e0000000000000000604482015260640161053a565b336000908152600d60209081526040808320600101849055838352600e90915290206002015460ff16156107445760405162461bcd60e51b81526020600482015260166024820152754e756d65726f206a61206573636f6c6869646f21212160501b604482015260640161053a565b336000818152600f602090815260408083208054600160ff199182168117909255868552600e8452828520600290810180549092168317909155600780548084019091557fa66cc928b5edb82af9bd49922954155ab7b0942694bea4ce44661d9a8736c688018790556006805492830190557ff652222313e28459528d920b65115c16c04f3efc82aaedc97be59f3f377c0d3f90910180546001600160a01b03199081168717909155600c90935290832080549092169093179055815460ff16919061080f83610fec565b825460ff9182166101009390930a92830291909202199091161790555060408051338152602081018390527f05dc065068a13bedcc9754bcca91dfc1108269094d1fe4a82723f25d53b73c9b910160405180910390a160025460ff1660060361087a5761087a610bcd565b50565b6000546001600160a01b031633036108d35760405162461bcd60e51b8152602060048201526019602482015278446f6e6f20646f20636f6e747261746f206e616f206a6f676160381b604482015260640161053a565b600154341461091d5760405162461bcd60e51b81526020600482015260166024820152752b30b637b9103232bb329039b2b910189032ba3432b960511b604482015260640161053a565b8060018110801590610930575060068111155b6109755760405162461bcd60e51b81526020600482015260166024820152754573636f6c686120656e74726520312065203621212160501b604482015260640161053a565b60025460ff1615610a075760405162461bcd60e51b815260206004820152605060248201527f41206372696163616f20646520696e7374616e63696173206465206a6f676f2060448201527f736f2065207065726d6974696461207175616e646f206f20636f6e7461646f7260648201526f1032b9ba34bb32b9103d32b930b2379760811b608482015260a40161053a565b3360008181526010602090815260408083208054600160ff199182168117909255868552600e8452828520600290810180549092168317909155600780548084019091557fa66cc928b5edb82af9bd49922954155ab7b0942694bea4ce44661d9a8736c688018790556006805492830190557ff652222313e28459528d920b65115c16c04f3efc82aaedc97be59f3f377c0d3f90910180546001600160a01b03199081168717909155600c90935290832080549092169093179055815460ff169190610ad283610fec565b82546101009290920a60ff818102199093169183160217909155600254166001039050610b3257604080518281523360208201527ffd4526f164b261f7a29ca05ca088785cc07b07aefe63fceab8c6984725928c28910160405180910390a15b60038054906000610b428361100b565b91905055505050565b60606007805480602002602001604051908101604052809291908181526020018280548015610b9957602002820191906000526020600020905b815481526020019060010190808311610b85575b5050505050905090565b60068181548110610bb357600080fd5b6000918252602090912001546001600160a01b0316905081565b60025460ff16600614610c2c5760405162461bcd60e51b815260206004820152602160248201527f4f20736f727465696f2061696e6461206e616f20666f69207265616c697a61646044820152606f60f81b606482015260840161053a565b6000610c36610dfd565b60048190556000818152600c60205260409020549091506001600160a01b031680610c6957506000546001600160a01b03165b600580546001600160a01b0319166001600160a01b038316179055610c8d81610e49565b6003546040516001600160a01b0383169184917fcdd0870b7e3ab1ed2c71cfed76d7aa5079b2ca824ed2534ea19d7bb94572c13f90600090a46002805460ff9081166000908152600a6020526040808220600401805460ff19169055925490911681529081206001018390555b600754811015610d63576000600e600060078481548110610d1d57610d1d611024565b9060005260206000200154815260200190815260200160002060020160006101000a81548160ff0219169083151502179055508080610d5b9061100b565b915050610cfa565b5060005b600654811015610dd0576000600f600060068481548110610d8a57610d8a611024565b6000918252602080832091909101546001600160a01b031683528201929092526040019020805460ff191691151591909117905580610dc88161100b565b915050610d67565b506002805460ff191690556040805160008152602081019182905251610df891600791610ee9565b505050565b60008042604051602001610e1391815260200190565b60408051601f1981840301815291905280516020909101209050610e38600682611050565b610e43906001611064565b91505090565b6000600a610e5847600961107d565b610e629190611094565b90506000610e7082476110a8565b6040519091506001600160a01b0384169083156108fc029084906000818181858888f19350505050158015610ea9573d6000803e3d6000fd5b50600080546040516001600160a01b039091169183156108fc02918491818181858888f19350505050158015610ee3573d6000803e3d6000fd5b50505050565b828054828255906000526020600020908101928215610f24579160200282015b82811115610f24578251825591602001919060010190610f09565b50610f30929150610f34565b5090565b5b80821115610f305760008155600101610f35565b600060208284031215610f5b57600080fd5b5035919050565b600060208284031215610f7457600080fd5b81356001600160a01b0381168114610f8b57600080fd5b9392505050565b6020808252825182820181905260009190848201906040850190845b81811015610fca57835183529284019291840191600101610fae565b50909695505050505050565b634e487b7160e01b600052601160045260246000fd5b600060ff821660ff810361100257611002610fd6565b60010192915050565b60006001820161101d5761101d610fd6565b5060010190565b634e487b7160e01b600052603260045260246000fd5b634e487b7160e01b600052601260045260246000fd5b60008261105f5761105f61103a565b500690565b8082018082111561107757611077610fd6565b92915050565b808202811582820484141761107757611077610fd6565b6000826110a3576110a361103a565b500490565b8181038181111561107757611077610fd656fea264697066735822122083b9d27480584e3bea61d131e9f8e785d7ba5476e0f9d2e136fe1530e4a1982d64736f6c63430008110033",
  "immutableReferences": {},
  "source": "// SPDX-License-Identifier: MIT\npragma solidity ^0.8.0;\n\ncontract BombChairGame {\n    address public owner;\n    uint256 public preco_jogo = 1 ether;\n    uint8 public contador = 0;\n    uint256 public numeroContrato = 0;\n\n    uint256 public ultimoNumeroSorteado;\n    address public ultimoVencedor;\n\n\n    address payable[] public s_jogador;\n    uint[] fora;\n    uint[] numeroEscolhido;\n\n    struct Sorteio {\n        address s_jogador;\n        uint numeroEscolhido;\n        bool valid;\n    }\n\n    struct Game {\n        address s_jogador;\n        uint numeroEscolhido;\n        uint256 valorSala;\n        uint256 balance;\n        bool active;\n    }\n\n    // Mapeamento para armazenar os endereos dos contratos BombChairGame criados\n    mapping(uint => Sorteio) public sorteios;\n    mapping(uint => Game) public jogos;\n    mapping(uint => address) public jogoContracts;\n    mapping(uint => address) public jogadorPorNumero;\n    mapping(address => Sorteio) public numeroEscolhido1;\n    mapping(uint => Sorteio) public jaEscolhido;\n    mapping(address => bool) ja_participa;\n    mapping(address => bool) public jogadorIniciouJogo;\n\n    constructor() {\n        owner = payable(0x80D639E9A17e2863fdAd9D2DcB58E886B3564bcF);\n    }\n\n    event NovaInstanciaJogo(\n        uint numeroEscolhido,\n        address jogador\n    );\n\n    function criarNovaInstanciaJogo(uint chosenNumber) public payable {\n        require(msg.sender != owner, \"Dono do contrato nao joga\");\n        require(msg.value == preco_jogo, \"Valor deve ser 1 ether\");\n        uint _numeroEscolhido = chosenNumber;\n\n        require(_numeroEscolhido >= 1 && _numeroEscolhido <= 6, \"Escolha entre 1 e 6!!!\");\n\n        // Verificar se o contador est zerado\n        require(contador == 0, \"A criacao de instancias de jogo so e permitida quando o contador estiver zerado.\");\n\n        jogadorIniciouJogo[msg.sender] = true;\n        \n\t\tjaEscolhido[_numeroEscolhido].valid = true;\n\n        fora.push(_numeroEscolhido);\n    \n        s_jogador.push(payable(msg.sender));\n\n        jogadorPorNumero[_numeroEscolhido] = msg.sender; \n\n        contador++;\n        \n        if (contador == 1) {\n            emit NovaInstanciaJogo(_numeroEscolhido, msg.sender);            \n        }\n\n        numeroContrato++;\n\n    }\n  \n   \n    event numeroEscolhidoRegistrado(address jogador, uint numeroEscolhido);\n\n    function jogar(uint _numeroEscolhido) public payable {\n        require(msg.sender != owner, \"Dono do contrato nao joga\");\n        require(ja_participa[msg.sender] == false, \"Vc ja participa\");\n        require(msg.value == preco_jogo, \"valor de 1 ether\");\n        require(\n            _numeroEscolhido >= 1 && _numeroEscolhido <= 6,\n            \"Escolha entre 1 e 6!!!\"\n        );\n        require(contador != 6, \"Sala cheia!!!\");\n\n   \n        \n\n        require(jogadorIniciouJogo[msg.sender] == false, \"Voce ja iniciou um jogo.\");\n        numeroEscolhido1[msg.sender].numeroEscolhido = _numeroEscolhido;\n        require(!jaEscolhido[_numeroEscolhido].valid, \"Numero ja escolhido!!!\");\n        ja_participa[msg.sender] = true;\n        jaEscolhido[_numeroEscolhido].valid = true;\n\n        fora.push(_numeroEscolhido);\n\n        s_jogador.push(payable(msg.sender));\n\n        jogadorPorNumero[_numeroEscolhido] = msg.sender;\n\n        contador++;\n\n        emit numeroEscolhidoRegistrado(msg.sender, _numeroEscolhido);\n\n        if (contador == 6) {\n            anunciarVencedor();\n        }\n    }\n\n    event VencedorAnunciado(\n        uint256 indexed numeroContrato,\n        uint256 indexed numeroEscolhido,\n        address indexed ganhador\n    );\n\n    function anunciarVencedor() private {\n        require(contador == 6, \"O sorteio ainda nao foi realizado\");\n        uint256 numeroSorteado = numeroAleatorio();\n\n        ultimoNumeroSorteado = numeroSorteado;\n\n        address vencedor = jogadorPorNumero[numeroSorteado];\n        if (vencedor == address(0)) {\n            vencedor = owner;\n        }\n\n        ultimoVencedor = vencedor;\n        \n        pagarVencedor(vencedor);\n\n        // Emitir o evento para anunciar o vencedor\n        emit VencedorAnunciado(numeroContrato, numeroSorteado, vencedor);\n\n        jogos[contador].active = false;\n        jogos[contador].numeroEscolhido = numeroSorteado;\n\n\n        for (uint i = 0; i < fora.length; i++) {\n            jaEscolhido[fora[i]].valid = false;\n        }\n\n        for (uint i = 0; i < s_jogador.length; i++) {\n            ja_participa[s_jogador[i]] = false;\n        }\n\n        contador = 0;\n\n        fora = new uint[](0); // Zera a lista de nmeros escolhidos\n\n    }\n\n    function numeroAleatorio() private view returns (uint256) {\n        uint256 randomValue = uint256(\n            keccak256(abi.encodePacked(block.timestamp))\n        );\n        return (randomValue % 6) + 1;\n    }\n\n    function pagarVencedor(address vencedor) private {\n        uint256 premio = (address(this).balance * 9) / 10;\n        uint256 taxaDono = address(this).balance - premio;\n\n        payable(vencedor).transfer(premio);\n        payable(owner).transfer(taxaDono);\n    }\n\n    function Fora() public view returns (uint[] memory) {\n        return fora;\n    }\n\n    function getBalance() public view returns (uint) {\n        return address(this).balance;\n    }\n\n    function ultimoSorteio() public view returns (uint256, address, uint256, uint8) {\n        return (ultimoNumeroSorteado, ultimoVencedor, numeroContrato, contador);\n    }\n  \n}",
  "sourcePath": "C:\\Users\\tluisneg\\Desktop\\sem\\contracts\\BombChairGame.sol",
  "compiler": {
    "name": "solc",
    "version": "0.8.17+commit.8df45f5f.Emscripten.clang"
  },
  "schemaVersion": "3.4.15",
  "updatedAt": "2023-12-05T14:26:39.251Z",
  "networkType": "ethereum",
  "devdoc": {
    "kind": "dev",
    "methods": {},
    "version": 1
  },
  "userdoc": {
    "kind": "user",
    "methods": {},
    "version": 1
  }
}